:060000000A128A110E280D
:10000800FE00030EF7000408F8000A08F9000A12B7
:100018008A11E3280A128A111128F001F101F2016C
:10002800F301F40183120313AB0183010A128A114D
:100038001D280A128A1171210A128A110A128A11BC
:100048009C210A128A110A128A11A3210A128A1102
:100058000A128A1187210A128A110A128A11942116
:100068000A128A110A128A1138210A128A11831275
:1000780003139F18402841284B280F30831203137D
:10008800A700A70B45284828831203139F1471085B
:10009800A700A8012708A0002808A1007430A9001B
:1000A8002908A2007330AA002A08A3000A128A119C
:1000B80056210A128A1174080A128A1182200A1219
:1000C8008A1183120313A7002708F00073080A1285
:1000D8008A1182200A128A1183120313A7002708A3
:1000E800AB007108050203187A287B287D2886173B
:1000F8003B2886133B280A128A110E288312031301
:10010800A200A8283F30E2280630E2285B30E22827
:100118004F30E2286630E2286D30E2287D30E22850
:100128000730E2287F30E2286F30E2287730E22873
:100138007C30E2283930E2285E30E2287930E22843
:100148007130E2288030E2282208A000A1012108AD
:10015800003A0319B028A6282008003A031986286F
:10016800013A03198828033A03198A28013A03191E
:100178008C28073A03198E28013A03199028033A64
:1001880003199228013A031994280F3A031996285B
:10019800013A03199828033A03199A28013A0319CE
:1001A8009C28073A03199E28013A0319A028033A04
:1001B8000319A228013A0319A428A62808000B1C31
:1001C800E628E728F828831203130618EC28ED28F8
:1001D800F1280130F500750885078618F428F528F8
:1001E800F728013085020B100B1DFB28FC28242959
:1001F8000B118312031388011429F201F20A01304A
:1002080088002B088700833081002429F2010230FE
:10021800880070088700833081002429F2010F29A3
:100228007208F500F6017608003A03191C2912290C
:100238007508003A03190129013A03190A291229F4
:10024800831203130C1F29292A292F291E08F500B8
:100258007508F1000C1379088A0078088400770E75
:100268008300FE0E7E0E0900831603130C178312FB
:1002780003130C13831603139F131F129F12831269
:1002880003131F083F3940389F001F08C33914382B
:100298009F001F140F3083120313A000A00B5229D4
:1002A80055290800831203132108A5002008A4007B
:1002B80004300310A50CA40CFF3E031D5D2924087F
:1002C800A600220884002608800020080F39A40010
:1002D80023088400240880000800203083160317B0
:1002E8008800890183160313850106148614861372
:1002F8008701880109148312031385018601870188
:1003080088018901080083160313811201128111E3
:100318000111811401148330831203138100080032
:1003280083160313811303309500033096000800E9
:10033800831603130F178F160F120F1408008B174D
:0C0348000B178B158B160B100B11080007
:04400E00D420FF3F7C
:00000001FF
